:10000000F82D0020D5500000D1500000D150000044
:1000100000000000000000000000000000000000E0
:10002000000000000000000000000000D1500000AF
:100030000000000000000000D1500000D15000007E
:10004000D1500000D1500000D1500000D15000002C
:1000500045410000D1500000D1500000D1500000B7
:10006000D1500000314600004146000051460000DA
:10007000614600007146000081460000393A0000E8
:10008000493A0000593A0000D1500000D150000018
:10009000D1500000D1500000D1500000D1500000DC
:1000A000D1500000D1500000D1500000D1500000CC
:1000B00010B5064C2378002B07D1054B002B02D03E
:1000C000044800E000BF0123237010BD7C04002021
:1000D000000000004095000008B5084B002B03D03D
:1000E0000748084900E000BF07480368002B03D019
:1000F000064B002B00D0984708BDC046000000000A
:1001000040950000800400204095000000000000A1
:10011000F0B583B06F46F87107370B4C0B4E201CBF
:10012000311C01220A4DA8478022D205094B5A6191
:10013000201C391C0122084B9847201C311C00222E
:10014000A84703B0F0BDC046900C00209C0C0020D6
:10015000113D000080440041FD3D000030B591B0EC
:100160005B4B984700205B4B98475B495B4B98473C
:1001700083001818400080221205594B5A6100284C
:1001800000D192E0574B586000229A60191C8022DF
:1001900052020B681342FCD08CE00B681342FCD077
:1001A000514C3123237000236370A37002A90122F4
:1001B0004A708B700A7031204C4B98472378D909CC
:1001C0000022002903D15A09D201454812181F21E3
:1001D0000B400121081C9840906102AA1170002375
:1001E00053609360137453749174D1741375242104
:1001F000535409930A9380235B02D3603C4B936270
:1002000001235B42D3623B4B13633B4B5363324B43
:1002100093613A4C201C3A493A4B98472268D3697B
:10022000002BFCD1116802230B43136001AC0123A6
:1002300063700022A27023703E20211C2B4DA84722
:100240001B20211CA84780221205254B9A61A8205B
:100250002D4CA0471F20A047D320A0470020A04737
:100260004020A047A120A047C820A047DA20A047EF
:100270000220A0478120A0478F20A047A420A047AC
:10028000A620A047D520A0478020A0478D20A047CA
:100290001420A047DB20A0474020A047D920A0473A
:1002A000F120A047AF20A04710E0802212050C4BA0
:1002B0009A6175E780221205094B9A61094B5860D3
:1002C00000229A60191C8022520266E711B030BDEC
:1002D000C53E0000894E000040420F00C959000091
:1002E0000044004110E000E09C0C0020B1410000FF
:1002F000020030000300360003003700900C00209D
:10030000001C0042693A000011010000F0B583B002
:100310006F46F87107370B4C0B4E201C311C012225
:100320000A4DA8478022D205094B9A61201C391C2E
:100330000122084B9847201C311C0022A84703B01B
:10034000F0BDC046900C00209C0C0020113D000028
:1003500080440041FD3D0000F8B54F464646C0B41C
:10036000071C0378002B1BD00F4A91460F4A90467A
:10037000161C7E2B10D8203B9B004A469D582B789C
:10038000002B07D00124285DB0470134E4B22B785C
:10039000A342F8D20020C04701373B78002BE8D1B8
:1003A0000CBC90469946F8BD280000200D030000C3
:1003B00030B58DB064230093224B01930023029348
:1003C00069460B730B7680229203049201225242FB
:1003D0008A8224228B540A932C228B542D228B54F4
:1003E0002E228B54184B6A46CB82184B0793184B1E
:1003F0000893184C201C1849184B9847246807226A
:10040000E3691A42FCD12268022313432360114D91
:100410002868134B98471F23184001238340181C5A
:10042000104B1860E8880023102105E00133834257
:1004300002D31023638302E0628B0A42F6D00DB030
:1004400030BDC046480D0000102700000300080022
:1004500003000900A00C00200010004285090000E4
:100460000546000000E100E070B588B007AD084324
:10047000287000236B7004A94F20088001244C8051
:100480004D600B724B728B7201AC208062800295C2
:1004900023726372A372074E301C074B9847301CBF
:1004A000211C064B9847287800026B78184308B047
:1004B00070BDC046A00C0020650E0000450E000077
:1004C00010B50020002102222D4B9847011C01226B
:1004D000030402D54004410CFF222A4B1B78012B58
:1004E00012D0002B04D0022B1AD0032B24D02FE0E3
:1004F000C90989B252B2101C4843234B9847174B85
:10050000154A224CA04725E0890989B252B2101C35
:1005100048431D4B9847124A124B1C4CA04719E008
:10052000490989B252B2101C4843174B98470E4AEA
:100530000E4B164CA0470DE0090989B252B2101CAF
:100540004843114B98470A4A0A4B104CA04701E018
:1005500009480A4910BDC046000000000000E03F05
:10056000000000000000D03F000000000000C03F7D
:10057000000000000000B03F00000000000000008C
:100580006904000098040020E56D0000F56100009A
:10059000F0B55F4656464D464446F0B499B0041C4B
:1005A000151C0160B24B186A8022520202431A6283
:1005B0000B780520DA0700D5D1E10B781C209907CC
:1005C00000D5CCE16B782371226801922B786846C4
:1005D00003721E2002A9A74B98471E20A64B9847DE
:1005E0002C23EB5C002B42D02B22AE5C297B88466F
:1005F0008A19D2B2D318DBB299469A4221D29F4AC5
:1006000093469F4B9A460F2737402B7BFF1804A831
:1006100059465022D047132F0CD8BF0004ABF858CE
:1006200003A900234B70CB708B7001230B70C0B2F9
:10063000944A90470136F6B240468319DBB2994599
:10064000E1D8EE8904A88D4950228D4B9847132E8E
:1006500037D8B60004ABF05803A900234B70CB7019
:100660008B7001230B70C0B2864B984729E02E7B1C
:1006700004A882495022824B9847132E0CD8B6000A
:1006800004ABF05803A900234B70CB708B7001238F
:100690000B70C0B27B4B9847EE8904A87749502273
:1006A000774B9847132E0CD8B60004ABF05803A92B
:1006B00000234B70CB708B7001230B70C0B2714B59
:1006C00098476B7D9B00DBB201990B70AB7DDB0122
:1006D0006A781343DBB24B702B79342B00D93DE1A0
:1006E0009B00694AD3589F460221102601221AE036
:1006F0006A7C297C102616E006211026012212E0D1
:100700000821102600220EE00021302600220AE0F7
:1007100000212026002206E000210026002202E01F
:100720000421102602221201702313400B43019A68
:100730009370EB7D17203F2B00D910E1D370226816
:10074000537E5BB2002BFBDBEA7C6B8813432422D5
:10075000AA5CD20013432A7D92001343AA7C520064
:1007600013433343019883802B7E002B01D12168F2
:1007700094E0102E5BD002D8002E38D0F7E7202E60
:1007800019D0302EF3D1EA7C002A0AD0EA698032EF
:100790001720FF2A00D9E2E02A6A8032FF2A00D916
:1007A000DDE01720E969FF2900DDD8E02A6AFF2A89
:1007B00000DDD4E0DBE7EA7C002A0DD0E869802286
:1007C000920081181720314A914200D9C7E0304A7F
:1007D000296A914200DBC2E017202C4AE969914264
:1007E00000DDBCE0296A914200DDB8E0BFE7EA7CA9
:1007F000002A11D0EA698020000111181720254A2B
:10080000914200D9ABE02A6A80200001111817201C
:10081000204A914200D9A2E017201E4AE96991427C
:1008200000DD9CE0296A914200DD98E09FE7EA7CC8
:10083000002A11D0EA698020000211181720164AF8
:10084000914200D98BE02A6A8020000211181720FB
:10085000114A914200D982E017200F4AE96991427A
:1008600000DD7CE0296A914200DD78E07FE7C04648
:1008700000040040A14F0000154F00002089000037
:100880005D7200007D5000004C880000FF030000F6
:1008900001FEFFFFFF0F0000FFFF00004A7E52B283
:1008A000002AFBDB019A13722268537E5BB2002B95
:1008B000FBDBAB8B019883832268537E5BB2002BFA
:1008C000FBDB2B8C01990B842C23EB5C002B04D0DD
:1008D000013BDBB217200F2B41D82B22AA5C17203B
:1008E0000F2A3CD82168487E40B20028FBDBE8890B
:1008F000297B0143A868014312050A431B041343E3
:1009000001990B612A23EB5C0B750F238B75242354
:10091000EB5C002B10D0EB8C1720144A93421ED8AE
:100920008B842B8D80200001191889B217200F4A63
:10093000914214D80199CB840D4B1A685201E023DF
:10094000DB001A400B4B586841011B68DB0E0B4360
:10095000DBB2134301990B85002000E0172019B08A
:100960003CBC90469946A246AB46F0BDFF0F000046
:10097000246080002060800001680722CB691A4251
:10098000FCD17047F0B5474680B482B0071C0C1C00
:10099000151C3960081C664B9847061C654B196A84
:1009A000821C01209040021C0A431A6201A92B7B81
:1009B0000B701436F6B2301C5F4B9847301C5F4BFF
:1009C0009847287B00215E4B984723681C209A0794
:1009D00000D5A9E023680520DA0700D5A4E038682F
:1009E000534B98469847061C5649574B9847B600B4
:1009F000564BF75000233B767B7600267B83BB83E8
:100A00002522BE543B62142323603C68201CC0474F
:100A1000804680236A461370567001239370D67007
:100A2000E8692E6A002803D1201C0021484B984712
:100A30006B46187002225A70030CD8B26946454BB7
:100A40009847002E04D1201C0121414B9847061CD9
:100A50006A46167002235370360CF0B269463D4B5D
:100A60009847AB8AFB80EB8A3B812A7E8023002A51
:100A700004D1394B9B789B07DB0FDB012A69002AE5
:100A800000D01343AA6813432422AA5C002A02D090
:100A90008022D2051343AA6A002A00D013432C22D5
:100AA000AA5C002A02D08022120513432D22AA5CE0
:100AB000002A02D08022120413432E22AA5C002AAC
:100AC00002D08022D2031343226813432360802381
:100AD0005B00636046461436F6B2301C1F4B9847E5
:100AE000FA21C9002B6859434B1E18181C4B984714
:100AF000471FFF2F0DD8301C184B98476B68FA2101
:100B0000C90059434B1E1818154B98470138FF2848
:100B100001D9402008E00004FF231B041840FF23F4
:100B20001F400743E760002002B004BC9046F0BDC0
:100B30008D45000000040040A14F0000154F00004B
:100B4000B1430000450F0000C9450000C80D00205A
:100B5000014400007D50000000200041BD4F000016
:100B6000C959000003681A7E910706D502221A7639
:100B70005B8B9A070BD541200CE05A8B510708D5A7
:100B80005968C02292020A435A60182002E00020ED
:100B900000E000207047C04630B502680023012401
:100BA000022504E001339BB20189994207D9117EE5
:100BB000214206D1117E2942F4D0002002E0122009
:100BC00000E0002030BDC04610B504686268802394
:100BD000DB02134363606162024B98470123237673
:100BE00010BDC046990B0000F0B55F4656464D4615
:100BF0004446F0B483B0061C0F1C05684C882B6873
:100C00001B01DB0F99464B7A002B02D0897A4A4BA5
:100C100098476A68494B13406B603B7A002B22D09F
:100C20007A7A92033B885B001343802212021343BB
:100C30006B62301C424B98476A68404B13406B60B4
:100C4000031E70D1301C3F4B9847031E6BD17B7A3B
:100C50009B03012213433A88120A78210A43520067
:100C600013436B6207E03A8852007B7A9B0313437D
:100C7000012213436B62301C314B98476A682F4B3B
:100C800013406B60031E4ED1301C2E4B98470190D1
:100C9000031E48D1013CA4B2002188462A4A93464B
:100CA00026E06B8B99063DD54A46002A02D1002CDE
:100CB00002D009E0012C07D16A688023DB021343CC
:100CC0006B60013CA4B213E0301C204B98474346B4
:100CD00001339BB29A462823EB5C796842468B54D9
:100CE000301C174B9847013CA4B2002803D1D046D2
:100CF0005C45D6D101E0D0460190B37A002B07D0F5
:100D0000301C124B98476A68C0239B0213436B60E8
:100D1000301C0E4B98472823EA5C7B6841465A54A6
:100D2000019B00E04123181C03B03CBC904699464F
:100D3000A246AB46F0BDC046C90B0000FFFFFBFF5B
:100D4000990B0000650B0000FFFF0000790900000F
:100D5000F0B55F4656464D464446F0B483B0061C97
:100D60000F1C05684C88324B98477B7A002B03D0C8
:100D7000B97A301C2F4B98476A682F4B13406B6031
:100D80003B7A002B09D07A7A92033B885B001343AD
:100D90008022120213436B6205E07A7A92033B8849
:100DA0005B0013436B62301C244B9847031C002BE1
:100DB00036D1301C224B98470190002830D1A046F4
:100DC0000024202399461A4A93461C4B9A4611E068
:100DD0006B8B4A46134222D0301CD8477B681A5D81
:100DE0002823EA54301CD047002806D16B8B0134ED
:100DF0005A0704D44445EBD103E0019001E01E23DF
:100E00000193B37A0198002B0AD0301C084B984705
:100E10006A68C0239B0213436B60019800E0412085
:100E200003B03CBC90469946A246AB46F0BDC046D6
:100E300079090000C90B0000FFFFFBFF990B0000C0
:100E4000650B000008B5828B92B20523002A04D1FD
:100E500001238372024B9847031C181C08BDC0462F
:100E6000E90B000008B5828B92B20523002A04D159
:100E700000238372024B9847031C181C08BDC04610
:100E8000510D000001680722CB691A42FCD170475E
:100E900070B5041C05682B68468B828BB61AB6B2F7
:100EA000828B013A92B282831A0109D5838B9BB25D
:100EB000012B0ED16A688023DB0213436B6008E0CC
:100EC000838B9BB2002B04D16A688023DB0213431F
:100ED0006B60201C0B4B9847236A9E192823EB5C00
:100EE000DBB23370A38B9BB2002B0AD1A37A002B09
:100EF00007D0201C034B98476A68C0239B0213430A
:100F00006B6070BD850E000070B5041C05686B8BAE
:100F10005A0703D51E222523C2540FE0468B838B2C
:100F2000F61AB6B2838B013B9BB28383044B98477E
:100F3000236A9E193278D2B22823EA5470BDC04683
:100F4000850E000070B580006B4BC45825682B6877
:100F50001B01D90F637E267E1E40638B9BB2002B44
:100F600035D1A38B9BB2002B31D02B7EDA0708D56D
:100F700001232B766B8B9A0716D541222523E25449
:100F800012E06B8B5A070FD518222523E254002359
:100F9000A383A37A002B07D0201C584B98476A687C
:100FA000C0239B0213436B60A38B9BB263832523F7
:100FB000E35C052B53D12423E35C002B03D1201CDD
:100FC0004F4B98474BE0201C4E4B984747E0628BB5
:100FD00092B2002A23D0A38B9BB2002B1FD12523D2
:100FE000E35C052B1BD12423E35C002B17D10323E7
:100FF0002B750023638325230022E254A37A002B60
:1010000007D0201C3D4B98476A68C0239B021343BE
:101010006B60F30723D5E368201C98471FE0628BC1
:1010200092B2002A1BD0A38B9BB2002B17D06B8BE4
:101030009A0609D4002903D0A38B9BB2012B03D0BD
:1010400041222523E2540AE02423E35C002B03D150
:10105000201C2B4B984702E0201C2A4B9847638B9F
:101060009BB2002B25D0A38B9BB2002B21D1252333
:10107000E35C052B1DD12423E35C012B19D1032351
:101080002B750023638325230022E254B30707D581
:101090002423E35C012B03D12369201C984708E03B
:1010A000F20706D52423E35C002B02D1E368201C61
:1010B00098472523E35C052B1CD02523E35C002BFC
:1010C00018D003232B7500236383A3832523E35CBC
:1010D000412B0AD0A37A002B07D0201C074B98473E
:1010E0006A68E023DB0213436B60730702D5636910
:1010F000201C984770BDC046C80D0020850E00001A
:10110000090F0000910E00000139002917DD0A1CAB
:10111000435C222B0DD103E00A1C435C222B08D137
:101120008218013A1378081C2C2B0AD00120404267
:1011300007E001390029EFD10120404201E0012000
:101140004042704710B5041C244B98423ED3DC2229
:10115000D2009B18984239D233E021482A21214AF3
:10116000214B224CA047002B21D15323E356002BC7
:101170001DDC0220012100221D4B98475323E0541F
:10118000002803DA1B481C4B984725E01B4B5B6883
:10119000002B0CD1194B02221A80A022D2015A80B6
:1011A00001225223E2541648164B984714E0532369
:1011B000E05612491022144B984702225223E2545F
:1011C0000AE05223C35C022BCDD9C6E7044829218B
:1011D000044A0E4B054CA04710BDC0469C0400209D
:1011E000B88900008C890000C8890000A571000042
:1011F00075370000208A000079730000C80C0020B9
:101200004C8A0000AD390000ED370000608A000014
:1012100030B5C1B0041C5223C35C032B18D16846FF
:10122000002180225200124B9847221C54326846FB
:101230001049114B114DA8476846114B984753234D
:10124000E35682B2181C694600230E4CA0470DE0FD
:10125000042B0BD10C480D4B98475323E056211C0F
:101260005431802252000A4B0A4CA04741B030BD95
:101270006F720000748A00004C8A00001175000033
:10128000797500004D380000C88A000079730000AD
:1012900030750000C538000010B5012805D9064892
:1012A0001E21064A064B074CA047DC239B005843EF
:1012B000054B181810BDC046B889000070890000A1
:1012C000E88A0000A57100009C04002038B50C1CC1
:1012D0000C490D4B9847002812D10C4B5C600C4C0C
:1012E000DC23DB00E518231C52331B78012B02D1D1
:1012F000201C084B9847DC239B00E418AC42F2D139
:1013000038BDC0464C8A000055750000C80C00204E
:101310009C04002045110000F8B54F464646C0B475
:10132000061C151C06295AD0072937D0052900D0DC
:10133000A9E1B64CDC23DB00E218231C52331B78F6
:10134000022B05D1231C53331B785BB2B34205D06B
:10135000DC21890064189442EFD102E0002C00D116
:1013600091E1002D0CD06B787F2B09D8A848A94BB0
:10137000984703225223E254201CA74B984782E14E
:10138000A648A44B98475323E056A54B9847002204
:101390005223E25402225023E25474E1A1489D4BAF
:1013A00098479A48DC23DB00C118021C523212789D
:1013B000032A05D1021C5332127852B2B24205D030
:1013C000DC22920080188842EFD102E0002800D190
:1013D00059E10421522281548F4B984753E1002A4E
:1013E00007D00421535E002B03DD8F48894B9847BB
:1013F00002E08E48874B9847844CDC21C900621874
:10140000231C52331B78042B05D1231C53331B7828
:101410005BB2B34205D0DC239B00E4189442EFD1C9
:1014200002E0002C00D12EE1AA8813B2002B0ADCC6
:101430005323E0567A4B984700225223E25402226B
:101440005023E2541FE15123E35C022B08D1EB88C7
:10145000002B00D017E15022A3545222A35412E1D2
:10146000EB88002B1DD004225223E25428687049D7
:10147000704FB8471030704B9847AE267600A05199
:10148000EA88B0235B00E25028686C49B847011C29
:101490006622FF32A018EB88A259D21A684B9847EF
:1014A000F1E0AE235B00E058B0235B00E358C01AC4
:1014B00020186630FF3012B22968614B98476623C6
:1014C000FF33E5185F48291C5F4B9847281C5F4B8A
:1014D0009847071C2B18013B1B785D2B02D0022874
:1014E00000DD871E6623FF33E35C5B2B00D0BCE08E
:1014F000EB19013B1B785D2B00D0B6E0BB1E5B19DE
:1015000099461B78222B00D0AFE0B91E8846281CD4
:101510004F4B9847061E00DAA7E000234A46137097
:10152000831E5B199C461B78222B23D1431C494AFE
:10153000A3527A1E92B2DB2189006252013A9BB219
:101540009A420DDDAB1800218946424F19782C29AB
:1015500001D149461970013A013BE05B8242F5DC5A
:10156000002362461370B11E281C394B9847061E93
:1015700006DA7AE00023374AA352DB229200A35214
:10158000F34343443F2B70D8201C1030711C691862
:10159000314B9847AD19023D00232B7002222F4B8F
:1015A000E252023EDA239B00E6526823FF33E21840
:1015B0006823FF33E35C002B57D000260020002176
:1015C0000025012700294BD1222B02D17840C0B23F
:1015D00047E0002805D0191C5C394B425941C9B27B
:1015E0003FE05D2B0CD004D82C2B0BD05B2B05D00F
:1015F00037E07B2B02D07D2B02D032E0013630E089
:10160000013E2EE0002E2CD115702AE09C04002013
:10161000008B000079730000111200002C8B000079
:1016200049390000588B0000808B0000A88B000017
:10163000CC8B0000B11D0000E1710000E08B0000C8
:101640005D720000E48B000081720000797500007B
:10165000091100006A0300006975000066030000BC
:10166000291C01321378002BACD1211C1031084801
:10167000084B98475323E056074B984700235022C6
:10168000A3545222A3540CBC90469946F8BDC046C0
:10169000F88B0000817200004939000010B5104B32
:1016A000984215D3DC24E4001B19984210D2016043
:1016B00042603023037400234374C3608360FF21BE
:1016C000532281545222835402225023C25406E0F2
:1016D00004486C21FF31044A044B054CA04710BD5F
:1016E0009C040020B8890000D48C0000608A0000AF
:1016F000A5710000F0B54F464646C0B485B0061C43
:10170000141C4A4B984200D282E0DC22D2009B1883
:1017100098427DD276E002225123F254301C54309C
:1017200073680093019180214900414A3368414D1B
:10173000A847AC235B00F0503F4988463F4F404AE2
:1017400091464BE0201C4146B847051E67D0AC23AC
:101750005B00F058FF231B1A9D4205D90022AC23E1
:101760005B00F25000205CE030185430211C2A1C31
:10177000C847AC225200B1586B18B350F31850331D
:1017800000221A7164192378002B27D000220392BB
:101790002C4A1909505C0F210B40D55CAC235B002F
:1017A000F358FF22D21A022A05D80022AC235B008C
:1017B000F250002035E003A925220A706A465073D2
:1017C0006A469573F318181C543004221C4B984732
:1017D000AC235B00F2580332F25001342378002B23
:1017E000B0D15023F35C002B07D103225223F254D3
:1017F000301C154B9847012013E0301C134B9847C1
:1018000001200EE05223C35C0020002B09D182E7A7
:101810000F48BD2149000F4A0F4B104CA0472378B9
:10182000B4E705B00CBC90469946F0BD9C0400207E
:101830000C8C0000AD740000248C00008775000043
:101840005D720000708C0000111200004511000054
:10185000B8890000E08C0000608A0000A5710000DB
:10186000F0B5474680B48AB0041C0D1C3E4B98422C
:1018700064D3DC22D2009B1898425FD258E0012248
:101880005123E2546623FF33E018002180229200A6
:10189000364B9847201C54306268944610231B191D
:1018A0009846A268002A50D131490E1C0B1C0F1C0F
:1018B0000A1C17E0E368002B4CD1002A07D0191E40
:1018C0000BD1131C2A490E1C2A4F0A1C0AE0131CB8
:1018D00027490E1C274F0A1C04E0131C0A1C24492C
:1018E0000E1C244F009545460195029703930496DC
:1018F000059106921E4B07931F4B089380214900C8
:101900001E4A63461E4DA847AC235B00E05050239F
:10191000E35C002B07D103225223E254201C194B15
:10192000984701201CE0201C174B9847012017E026
:101930005223C35C0020002B12D1A0E71348D8210A
:101940004900134A134B144CA047E368002BB1D055
:10195000124E00E0064E131CE2681149054FC1E724
:101960000AB004BC9046F0BD9C0400206F720000D9
:10197000348F0000848C0000D08C0000988C000014
:10198000AD7400001112000045110000B88900007C
:10199000A4890000608A0000A5710000948C0000FA
:1019A0008C8C0000F8B5041C154B98421FD3DC2228
:1019B000D2009B1898421AD210E0A5196635FF355F
:1019C000281C104B984733189BB2591C0E4AA15241
:1019D00000209F424041404228400FE00A4BC65A37
:1019E000DA239B00C75A0020BE4207D2E5E707482A
:1019F000E7214900064A074B074CA047F8BDC046FF
:101A00009C0400207975000066030000B88900007E
:101A100080890000608A0000A571000008B5034BB2
:101A20001B68002B00D0984708BDC0467C0B0020E7
:101A300038B5002806D0041C034D0120A847013CFE
:101A4000002CFAD138BDC046013F0000F8B5074C64
:101A500020276761402666616420054DA847A7617D
:101A60000A20A847A6616420A847F8BD8044004129
:101A7000311A000070B582B000230E4A136001AC29
:101A800001256570A37025702620211C0A4EB047E1
:101A90002520211CB0472720211CB047074B984721
:101AA000074B9847074B1D70BFF35F8F62B600204E
:101AB00002B070BD7C0B0020B1410000C53E0000AB
:101AC0004D1A00000C04002000B585B00D4B1860C5
:101AD00001A900234B6001220A724A728B72022311
:101AE000CB72242301930420074B98470748042115
:101AF0000022074B984704200021064B984705B069
:101B000000BDC0467C0B00205D4000001D1A000097
:101B1000D54000000541000008B5002804D004208D
:101B20000021044B984703E004200021024B984712
:101B300008BDC046054100002541000010B590B029
:101B4000294C0523237000236370A37001A901228F
:101B50004A708B700A700520244B98472378D90966
:101B60000022002903D15A09D201214812181F214D
:101B70000B400121081C9840906102AA11700023BB
:101B800053609360137453749174D174137524214A
:101B9000535409930A9380235B02D360154B9362DD
:101BA00001235B42D362144B1363144B5363144BF6
:101BB000936114481449154B984700280FD1114BD5
:101BC0001A68D369002BFCD1116802230B43136000
:101BD0000F4B984701200F4B9847002000E0FA2058
:101BE00040B210B010BDC046D80C0020B14100007A
:101BF0000044004103000400030006000300070046
:101C000080969800DC0C002000080042693A000031
:101C10004D1A0000311A0000F0B55F4656464D4699
:101C20004446F0B487B003286CD10E684D680F8924
:101C300000226B46DA751733002E05D0002D5FD1D8
:101C4000012402951D1C04E00024012002906E4630
:101C50001736314831490122314B9847002F42D085
:101C60002D4B9A46012104220020844604239946E4
:101C70001E208046634263410393347850460368D4
:101C8000187E0842FCD0187E0842FCD09C62187E68
:101C90001042FCD0204884790195187E1042FCD077
:101CA0005D8B6046154205D0588B4D46284380B267
:101CB00058834046012C04D19D6AED05ED0DAB46DD
:101CC00002E09D6AEDB2AB460028E6D1019D584680
:101CD0002870013FBFB2039BED18029C6342634131
:101CE000F618002FC9D10C4B196802220B7E134243
:101CF000FCD0094809490022094B9847002002E01E
:101D0000FA2000E0FF2040B207B03CBC9046994664
:101D1000A246AB46F0BDC046DC0C0020D80C00202B
:101D2000113D000000207047002A06D082180B7871
:101D30000370013001319042F9D17047002A04D07C
:101D40008218017001309042FBD17047031C027869
:101D5000002A07D00020013080B201331A78002A0F
:101D6000F9D100E00020704710B5031C002A1AD0FA
:101D700000780C78A0420AD1002817D0013A92B21C
:101D800001329A1809E018780C78A04203D0A042DA
:101D90000BD2FF200AE0002808D001330131934222
:101DA000F1D1002002E0002000E0012010BDC0467B
:101DB000F0B5474680B4041C0F78002F17D00131CE
:101DC0008846081C0B4B9847061C00E02C1C651C21
:101DD0002378002B0AD0BB42F8D1281C4146321C84
:101DE000054B98470028F1D1201C00E0002004BCDE
:101DF0009046F0BD4D1D0000691D0000024B1A7891
:101E00000132D2B21A707047840B00207047C0466E
:101E100000B583B00120094B9847094801A9094B37
:101E20009847002806D10221019B194301910448DB
:101E3000054B984740B203B000BDC046191B0000D7
:101E400070100000352C0000412C000008B5104B2C
:101E50001B78002B13D10F4B1B78032B04D00D4B99
:101E60001B780020042B0BD10B4B984700280CD17A
:101E70000A480B490B4B9847002801D005E0002089
:101E8000034B1A780132D2B21A7040B208BDC04674
:101E90009C0B00208C0B0020ED260000741000002D
:101EA00078560000412C000000B583B0154B1A781D
:101EB000013AD2B21A701B780020002B1ED1124BAF
:101EC0001B78032B03D0104B1B78042B16D1002357
:101ED00001930E480E490F4B984700280ED1012060
:101EE00001A90D4B9847002808D101998B0705D50A
:101EF0000223994301910120064B984740B203B059
:101F000000BDC0469C0B00208C0B0020741000000C
:101F100021430000412C0000352C000008B50023AF
:101F2000084A1360084A1360084A1370084A13707D
:101F3000084A13700848094B9847094A094B1A6028
:101F4000002008BD800B0020900B00209C0B00207F
:101F50008C0B0020840B0020FD1D0000C91A00001E
:101F60000D1E0000880B0020F0B557464E46454632
:101F7000E0B486B0061C0D1C914698460EAC01CC10
:101F8000278810AB1B889A467F230B4005AC6370F3
:101F9000267008236380002805D06288D219524435
:101FA00092B2628004E005AB5A88424492B25A80F1
:101FB0004C4B9847041E00D08DE0002303936A46E3
:101FC000D3800293029B1E430296029B2D021D4367
:101FD000029505AB5B88029A1B0413430293029996
:101FE0004148424B9847041E75D100230293029A40
:101FF00002231343029302993D483C4B9847041E29
:1020000069D1002203926B46DA80DA8892B2394BAA
:102010009A421CD8364D384C281C02A9A0470028EB
:1020200015D1029B990708D4344803A9324B98472D
:1020300000280CD00023039309E06B46DA880132B4
:1020400092B2DA80DA8892B22A4B9A42E4D9039BA0
:10205000002B3FD0039B049305A94B889BB24B8078
:1020600004980822264B9847041E34D1049B083359
:1020700004934A46002A09D0049849464246204B18
:102080009847041E27D1049B434404930E9B002BC6
:102090000FD0049B50464146421AD318049304982B
:1020A0000E993A1C164B9847041E14D1049BFF1836
:1020B0000497039B9B000293029A0223134302930B
:1020C00002991048094B9847041E04D10E4B9847BB
:1020D000041C00E0FD2460B206B01CBC904699468A
:1020E000A246F0BD4D1E00008C100000412C0000E7
:1020F00078100000E7030000352C000000041500F4
:10210000B92C00006C100000A91E0000F0B5574665
:102110004E46C0B485B0594A9146171C584CA1E0B0
:102120003B78013BDBB23B70564DA0470028FCD109
:10213000554801A9A8470028F7D1019BDB0700D427
:102140008AE0524B9847504801A94E4B98470028C7
:10215000EBD101230199994301914B484C4B98478E
:102160000028E2D1484801A9464B9847002803D0EF
:102170000120464B9847D8E70022464B1A70019A37
:1021800093041B0D9A46D0D000230393424803A921
:102190003C4B9847061E03D001203C4B98475EE01D
:1021A000039802A904223D4B9847061C6A465389AE
:1021B0009BB25381002803D00120344B98474EE056
:1021C00002AB5B889BB29A450AD002AB5B88524651
:1021D000D31A042B04DD01202C4B9847FA263EE04D
:1021E00002AB1B78012B0DD12D4B1E68002E2DD07C
:1021F00002AB5878C0B25988083989B2039A0832BC
:10220000B04723E002AB1B78022B0DD1254B1E6893
:10221000002E1BD002AB5878C0B25988083989B259
:10222000039A0832B04711E002AB1B78FA26042B60
:1022300015D11D4B1E68002E08D002AB5878C0B2D5
:102240005988083989B2039A0832B047114B1B7874
:10225000002B01D1154B9847154B9847061C002EB3
:1022600000D062E74A461378002B00D058E70020E0
:1022700005B00CBC91469A46F0BDC046840B0020C8
:102280004D1E0000352C000070100000191B0000CE
:10229000412C0000940B0020841000004D2C000005
:1022A000800B0020900B0020980B0020111E0000D6
:1022B000A91E0000F0B54F464646C0B483B0061CC8
:1022C0000F1C151C98461C4869461C4CA047041E50
:1022D0002CD1009A91461A4801A9184B9847041E20
:1022E00024D1301C391C2A1C164B9847041E1DD1C2
:1022F0004A4693041B0DAB4213D3019A964212D364
:1023000075199B189D4210D85D1B032D02D94346B9
:10231000002B0BD001220C4B1A700C4B9847041C5D
:1023200004E0F42402E0F42400E0F42460B203B0FA
:102330000CBC90469946F0BD70100000352C000092
:10234000841000004D2C0000940B0020111E000092
:10235000022808D002D8012809D014E003280ED0A2
:10236000042808D00FE0094B196000200CE0084B4E
:102370001960002008E0074B1960002004E0064BBC
:102380001960002000E0F42040B27047900B00205C
:10239000800B0020980B0020880B002010B59CB00B
:1023A000141C2E2811D1101C01A9042200236C4CEE
:1023B000A047002800D0D0E06A4B1B68002B00D15A
:1023C000CBE02E2001A99847C7E02C2811D1101C82
:1023D00001A928220123624CA047002800D0BCE0BC
:1023E000604B1B68002B00D1B7E02C2001A9984757
:1023F000B3E00C2800D1B0E0382811D1101C01A99D
:1024000010220023564CA047002800D0A5E0554BD1
:102410001B68002B00D1A0E0382001A998479CE060
:10242000352816D101A8002164224F4B9847201C63
:1024300001A9642200234A4CA047002800D08CE068
:10244000484B1B68002B00D187E0352001A9984735
:1024500083E03A280FD1101C01A910220023404C20
:10246000A047002879D13F4B1B68002B75D03A203C
:102470000021984771E0322816D100223B4B1A7098
:10248000201C01A904220023354CA047002864D158
:1024900001AB1A78364B1A70324B1B68002B5CD09C
:1024A000322001A9984758E034280FD1101C01A907
:1024B0002C2200232A4CA04700284ED1294B1B6810
:1024C000002B4AD0342001A9984746E004280FD1B8
:1024D000101C1AA904220023214CA04700283CD13B
:1024E000204B1B68002B38D004201AA9984734E0F1
:1024F00015280FD1101C1AA904220023184CA0473C
:1025000000282AD1174B1B68002B26D015201AA9AA
:10251000984722E007280FD1101C01A9642201234B
:102520000F4CA047002818D10E4B1B68002B14D06D
:10253000072001A9984710E02A280ED1101C01A9F4
:1025400004220123064CA047002806D1054B1B6836
:10255000002B02D02A2001A998471CB010BDC0460C
:10256000B5220000A00B00203D1D0000A40B0020A0
:10257000A50B002010B502680C4B1A6000220C4B12
:102580001A7000200B4B9847041E0CD100200A4BF8
:102590009847041E04D101200849094B984702E0DE
:1025A0000020084B984760B210BDC046A00B002029
:1025B000A40B0020252D00001D1F00009D230000FE
:1025C00051230000152E000008B5014B984708BDA7
:1025D0000D210000F0B54F464646C0B49FB081467D
:1025E0000E1C141C1D1C26AB1B889846012A0BD000
:1025F000002D60D0281C394B984700285DD0281C3E
:10260000364B984740285AD8731E1F2B59D841463D
:102610000D2901D9FF2956D104AF684656304946E5
:10262000321C2F4B9847BE1940360023B371442308
:102630004246FA524123FC54032C1BD12B78013B18
:10264000DBB204AA1370032B3FD86A78511E04AB87
:1026500059701023111C9943F4200B2938D1A91C5F
:10266000684612301E4B98476B7804AAD318002294
:102670009A7015E0022C09D1281C184B9847421C6F
:10268000D2B204A8291C164B984709E0042C05D1A6
:1026900004A8291C3E22124B984701E0012C16D1B8
:1026A00000230093019302930120282104AA6823A8
:1026B0000C4CA0470CE0F4200AE0F42008E0F420E1
:1026C00006E0F42004E0F42002E0F42000E0F4202E
:1026D00040B21FB00CBC90469946F0BD4D1D0000A5
:1026E000291D0000691F000000207047F0B55F46FB
:1026F00056464D464446F0B483B0012001A92B4B09
:102700009847804600283FD10024294B9B46294BFF
:102710009A46264B99460221019B19430120D8472E
:10272000534618686946C8478046002802D1009B76
:10273000002B09D10E221F4B1A600E2069461B4B3D
:102740009847804600281FD1009B5B0719D40134AD
:10275000201C0321184B9847002918D1174F154EFC
:10276000124D0120B84730686946A847009B5B07B7
:1027700007D40134201C03210F4B98470029F0D0C7
:1027800005E0009B5B07C6D5434658B206E0022130
:10279000019B19430120064B9847F2E703B03CBC6C
:1027A00090469946A246AB46F0BDC046352C000087
:1027B000412C000000040020515A0000311A000092
:1027C00000B583B000230193012001A9064B98476F
:1027D00001998B0705D50223994301910120034BF1
:1027E000984703B000BDC046352C0000412C0000C6
:1027F00038B50620DB210C4CA04707200621A04756
:102800000A200A4DA847A42040010021A0470848FB
:102810000021A0470A20A84706200021A047072042
:102820000021A04738BDC046412C0000311A0000ED
:102830008414000000B583B0164801A9164B9847D0
:1028400000281ED180214900019B194301911148A4
:10285000124B9847002816D1D020400101A90E4BF9
:102860009847002811D180214902019B1943019109
:10287000D0204001094B98470023002806D0FA23B6
:1028800004E0FA2302E0FA2300E0FA2358B203B08E
:1028900000BDC04608140000352C0000412C00008B
:1028A00070B582B01E4800211E4CA0471E48002172
:1028B000A0471E480021A0471D4E301C01A91D4DF8
:1028C000A8470121019A11430191301CA0471A48E1
:1028D0000121A047041CA020400101A9A8472418F9
:1028E000E4B2019B5A0501D4E4B208E0134919404F
:1028F0000191A02040010B4B98472418E4B280219D
:10290000C900019B19430191A0204001054B984744
:102910002418E4B201200A4B984760B202B070BD9F
:102920000C000C00412C00008C100000AC070200D1
:1029300018110000352C000014001500FFFBFFFFEC
:10294000311A000000B583B0214B1B68002B3AD12F
:10295000802040011E491F4B9847002803D00022C9
:102960001B4B1A602DE01C4801A91A4B9847002800
:1029700003D00022164B1A6023E0154B1B68174A40
:10298000934206D10199012912D0154A104B1A60C1
:102990000EE0144A93420BD1019B032B08D0042B69
:1029A00003D1114A0A4B1A6002E0104A084B1A6020
:1029B000074B0F4A19680A40A021C9020A431A604E
:1029C00001E0002001E0024B186803B000BDC046E2
:1029D000A80B0020352C0000F4130000A00210000A
:1029E000A1021000B0021000B1021000B2021000EB
:1029F000FFFFF0FF08B5064B98470005000D054B9B
:102A0000984203D904480549054B984708BDC0467C
:102A100045290000AF020000481E0000CE6984B7BF
:102A2000412C0000F8B5084C201C084B98470126A3
:102A3000071CB743201C391C054DA847391C3143DE
:102A4000201CA847F8BDC04628140000292C00000F
:102A5000412C000010B5064C201C064B984704235F
:102A6000011C1943201C044B9847044B984710BD88
:102A70001C140000292C0000412C0000252A000015
:102A800010B5044B9847041E01D1034B9847201CF6
:102A900010BDC046ED260000F127000010B5074B21
:102AA0009847A02040010021054B9847041C322084
:102AB000044B9847044B9847201C10BD552A000032
:102AC000412C0000311A0000F5290000F8B5174D1F
:102AD000174C184E281CA047002802DB0120B047E5
:102AE000F8E71548124B9847C30712D508E00120B4
:102AF000B8471248B047013C002C07D0A842F6D195
:102B00000E480F490F4B9847002000E0FB2040B2D1
:102B10000BE00120074B98470848054B9847FA24DB
:102B2000E400094D034F024EE8E7F8BD1410000021
:102B3000292C0000311A0000BC0702000C000C0018
:102B4000612F52EF412C00009ED0AD10F8B501204E
:102B50000E4B98470E480F4B9847FA24E4000E4D51
:102B60000A4F0C4E06E00120B8470948B047013C27
:102B7000002C07D0A842F6D105480021074B984702
:102B8000002000E0FB2040B2F8BDC046311A000032
:102B90008C100000292C000036265302412C000026
:102BA000F0B583B000230193A0246401201C01A987
:102BB000144B98471449019A11400191201C134B62
:102BC0009847031E1BD10A24A0256D010D4E0F4FFF
:102BD000281C01A9B04700280CD1019B5A050BD530
:102BE000094919400191281CB847013CE4B2002C66
:102BF000EED103E0031C02E0002300E0031C58B206
:102C000003B0F0BD352C0000FFFBFFFF412C00009E
:102C100008B5014B984708BD3D1B000008B5014BA6
:102C2000984708BD251D000008B5014B984708BD11
:102C30000132000008B5014B984708BD153200006D
:102C400008B5014B984708BD2D320000F8B54F4636
:102C50004646C0B4071C8846151C154B1B881C1C17
:102C6000083CA4B2944207D3002643469919381C65
:102C70002A1C104B984715E0D51A0835ADB200262E
:102C80000C4B994643469919381C221CC84700280A
:102C900008D13619B6B23F192B1B9BB2A542E4D915
:102CA0001D1CEFE740B20CBC90469946F8BDC046EB
:102CB000FC030020DD320000F8B54F464646C0B4A4
:102CC000071C8846151C154B1B881C1C083CA4B20D
:102CD000944207D3002643469919381C2A1C104BEE
:102CE000984715E0D51A0835ADB200260C4B994629
:102CF00043469919381C221CC847002808D13619A8
:102D0000B6B23F192B1B9BB2A542E4D91D1CEFE7BD
:102D100040B20CBC90469946F8BDC046FC0300206A
:102D20004933000070B582B00023019300202A4B84
:102D30009847041E4CD18020400101A9274B984799
:102D4000041E44D1264B9847051C0A20254B984762
:102D5000002D38D1244B9847051E34D1234B98477A
:102D6000234B9847234B9847051E2CD1224B98475D
:102D7000051E28D1214B9847051E24D1204B98478A
:102D8000051E20D1A520400100211E4B984700239D
:102D900000931D486946114B9847061C009D1B4B2C
:102DA0009847290E09022A0C0F231A400A432D0DB9
:102DB0002B401B011A4390235B019A4201D80D3628
:102DC00006D1F32404E0124B98472C1C00E00024A9
:102DD00060B202B070BDC046112C0000352C00005E
:102DE000812A0000311A00009D2A000045320000AF
:102DF000C1270000A1280000CD2A00004D2B0000B3
:102E000035280000412C0000AC07020045290000D5
:102E10001D2C000008B5044B9847002801D1034B36
:102E2000984740B208BDC046A12B00001D2C0000F1
:102E300000B585B001AB00220192029019810320F8
:102E4000191C024B984705B000BDC046191C000074
:102E5000F0B583B0061ECF2E04D0031C3B33DBB28B
:102E6000012B07D8684607300121194B98470023EA
:102E7000002829D10B246D460735154F281C012148
:102E8000B847002819D12B78B34204D10B246D46E2
:102E900007350F4E04E0013CE4B2002CEED1F5E71B
:102EA000281C0121B047002809D12B78002B08D01D
:102EB000013CE4B2002CF3D105E0002304E0002340
:102EC00002E0012300E0012358B203B0F0BDC04688
:102ED000312E0000F0B55F4656464D464446F0B4EC
:102EE00083B082460F1C934600229046294E8023D1
:102EF0009B019F4202D8BBB2994602E080239B010E
:102F000099460A246D460335281C0121B047002844
:102F10002CD12B781B090F2B05D0013CA4B223B276
:102F20000133F1D124E024B2002C23DD4A4694B2CF
:102F3000434618B25044211C164A904700281BD122
:102F40005B46002B09D1144A1378002B05D101A848
:102F50000221104B9847002810D14246A3189BB27B
:102F600098463F1BBFB2002FC1D109E0002008E006
:102F7000002006E0002004E0002002E0002000E045
:102F8000012040B203B03CBC90469946A246AB46F5
:102F9000F0BDC046312E0000AC0B002000B585B05E
:102FA00001AB01900022029219810320191C024BEF
:102FB000984705B000BDC046191C000070B584B02C
:102FC00008AC257801AC20703F30C4B20E2C00D97B
:102FD0008FE0A0004C4C2058874601AB0A0C5A7079
:102FE0000A0A9A70D970052186E00B0ADBB2002D1F
:102FF00002D101AA537004E080225242134301AA75
:10300000537001AB99700022DA70052174E001ABB6
:1030100000225A709A70DA7005216DE001AB00222F
:103020005A709A70DA70052166E001ABFF225A707F
:103030009A70DA7005215FE001AA080C5070080A46
:103040009070D170190A11715371072154E001AACF
:10305000080C5070080A9070D170190C1171190A7F
:1030600051719371082147E00B0ADBB2002D02D1A8
:1030700001A8437004E080204042034301A843704C
:1030800001AB9970110ED970110C1971110A597197
:103090009A71082130E001AB080C5870080A98704A
:1030A000D970110E1971110C5971110A9971DA71D7
:1030B000092121E04E1E002E0DD001AB03226A44EF
:1030C00055187F22114C187852004240A25C0133FF
:1030D000AB42F8D100E07F22520001AB9A5501E0EB
:1030E0000139C9B201A80A4B984743425841C0B2BE
:1030F00000E0002040B204E0064B1B78002BD9D042
:10310000EEE704B070BDC046F08C00002C8D0000CE
:103110009D2F0000AC0B002030B583B0031C0A1CAF
:10312000302802D80121C32401E00021C9240091E4
:10313000201C191C04230B4DA847002301280DD186
:10314000201C094B98470123012807D00023009336
:10315000CF2000210022034CA047002358B203B027
:1031600030BDC046BD2F0000512E0000F0B585B027
:10317000031C0F1CFF2802D80125C42401E00025F0
:10318000CA240095201C191C00220423194EB047A4
:10319000002301282BD1201C174B9847012808D069
:1031A00000230093CF2000210022124CA0470023CF
:1031B0001DE003A804212A1C104B9847012808D0C1
:1031C00000230093CF20002100220A4CA0470023B7
:1031D0000DE003AB597809029A78120411431A786A
:1031E0001143DA7812060B1C13433B60012358B2DB
:1031F00005B0F0BDBD2F0000512E0000D52E0000FF
:1032000000B583B001A9024B9847019803B000BDF7
:103210006D31000008B5044B9847012801D100200A
:1032200000E0FA2040B208BD6D31000008B5044B43
:103230009847012801D1002000E0FA2040B208BDE3
:103240001931000010B582B0002300931D4A13709D
:103250001D4869461D4B9847002808D10122194B8B
:103260001A7019486946194B9847002827D0154B02
:103270001B78002B0DD17C230099994350231943CF
:1032800000911148124B9847002818D001220D4B8D
:103290001A708020400101A90C4B984700280DD0DE
:1032A000094C201C0B4B98477023011C9943502359
:1032B0001943201C084B9847002000E0FA2040B238
:1032C00002B010BDAC0B002024E800006D310000FE
:1032D00019310000013200002D32000070B582B0BB
:1032E000031C0E1C141C00220092C820191C231C55
:1032F000124DA84701281DD1C820114B984701281D
:1033000007D000230093CF20002100220B4CA047C0
:1033100010E0301C211C00220A4B98470023012892
:1033200006D00093CF2000210022044CA04701E0EA
:1033300058B201E0FA23FBE702B070BDBD2F0000D8
:10334000512E0000D52E0000F0B557464E4645469A
:10335000E0B484B0031C8846141C00220092C720ED
:10336000191C231C304DA847012852D1C7202F4BD0
:103370009847012807D000230093CF200021002286
:10338000294CA04745E0002203AB1A800025802786
:10339000BF01BA46264B9946261CBC4200D9564668
:1033A000B6B2002D04D10123BC4206D8032304E0A9
:1033B000A7429B415B420322D31A68460B3010227E
:1033C0005242134303700121C847002819D128B283
:1033D0004044311C164B9847002812D1154B1B78DE
:1033E000002B05D103A80221114B9847002808D1D2
:1033F0007519ADB2A41BA4B2002CCDD10BE040B224
:103400000BE000230093CF2000210022064CA047B0
:1034100001E0FA20F3E70020F1E704B01CBC90467D
:103420009946A246F0BDC046BD2F0000512E0000B7
:103430009D2F0000AC0B0020F0B55F4656464D4670
:103440004446F0B483B082460D1C93461F1C0CAB5F
:103450001E88002E44D0CE80430053449B009846E3
:10346000234B9946C14401974A469388F31A9BB26D
:103470001AB2002A10DD032A06DD1D4F3B1C43440F
:103480009C88A4B2002309E01948031C43449C888B
:10349000043CA4B2002301E0341C0123144A474633
:1034A000B9580198221C134FB847002818D1104B67
:1034B0004046C3582B60AC80EB881B1BEB800E4B47
:1034C0001B68002B05D00C4B1B68504659462A1C24
:1034D0009847361BB6B2019A12190192002EC3D139
:1034E00003B03CBC90469946A246AB46F0BDC046F0
:1034F000EC0C0020B5220000700D0020F0B547460E
:1035000080B498B00D1C141C41281AD1101C07A9B6
:10351000042200237F4CA047002800D0F6E007AB30
:103520005A7803AB1A707C4B1B68002B00D1EDE07E
:10353000794B1B6807AA00201056012103AA98475F
:10354000E4E042281AD1101C07A904220023714C80
:10355000A047002800D0D9E007AB5A7803AB1A7017
:103560006D4B1B68002B00D1D0E06B4B1B6807AA8A
:1035700000201056022103AA9847C7E043282DD106
:10358000101C03A90C220023624CA047002800D085
:10359000BCE003AB5A7A53B2002B08DB5F495800FA
:1035A000C418A4000C190025E5710123A37107AB11
:1035B0001A7002229A8003AA5188D980049A09922B
:1035C000554B1B68002B00D1A0E0534B1B6803AA8E
:1035D00008201056042107AA984797E0442801D0F4
:1035E0004B281AD1201C07A904220023494CA047CC
:1035F000002800D08AE007AA107803AB1870527830
:103600005A70454B1B68002B00D17FE0424B1B6872
:1036100040B2052103AA984778E04A2811D1101C2E
:1036200007A9442200233B4CA04700286ED11799DC
:103630003B4B1B68002B69D0394B1B6807A8984788
:1036400064E0462806D0482807D04D283CD1062201
:10365000904604E00623984601E009229046201C8B
:1036600003A9102200232B4EB04700284ED103AEF1
:10367000307B43B25A00D3189B00284AD31800224B
:103680001A723789718907AB72885A81049E0A962B
:103690003AB2002A09DDAA4207DA40B2631800975D
:1036A00007A942461F4CA04730E007AB9F8000238C
:1036B0000793194B1B68002B28D0174B1B6840B28F
:1036C000414607AA984721E0452805D0472805D05C
:1036D00007254C2803D019E0072500E00825201C09
:1036E00007A9042200230B4CA04700280ED107ABEA
:1036F00018785A8803AB1A80074B1B68002B05D03B
:10370000054B1B6840B2291C03AA984718B004BC9B
:103710009046F0BDB5220000700D0020EC0C00209A
:10372000740D00203934000008B5084B1B78002BBD
:103730000BD1074800218422064B984702200649F6
:10374000064B98470122014B1A7008BDAD0B0020B3
:10375000EC0C00203D1D0000FD3400005123000052
:10376000024B1860024B19607047C046700D002074
:10377000740D002030B5FF23022825D1012925D062
:103780000B240720022923D01EE0011C43001B1834
:103790009B00EB189B79002B11D14B005B189B0011
:1037A000114CE31801249C71D30706D54B0059181E
:1037B00089000D4B5B180122DA71C3B204E00130BD
:1037C000C0B28442E1D8FF2358B20BE007240020A6
:1037D000011C43001B189B00034DEB189B79002B29
:1037E000DBD0ECE730BDC046EC0C002030B589B032
:1037F00000281FDB00291FD043001B189B00104A24
:10380000D318DB794B25002B00D1442505AC207261
:10381000201C08220B4B984700230093019302932E
:103820000220291C221C0C23074CA047002804D08E
:10383000F72002E0FA2000E0FA2040B209B030BDE3
:10384000EC0C0020291D0000691F000010B588B095
:103850000B1C002825DB002925D0AF21C9008A4296
:1038600023D805A908704A804424062800DC502487
:103870004100081880000F490818C1794520002927
:1038800001D04C20552480210143009301920294E1
:10389000022005AA0C23084CA047002806D00748A0
:1038A00004E0074802E0064800E0054800B208B01E
:1038B00010BDC046EC0C0020691F0000F2FF0000A4
:1038C000FAFF000070B586B000282DDB00292DD04E
:1038D000002A2DD0184C45002E18B6003151A119E0
:1038E0008A80097A0022002923D1221C94190125FB
:1038F0002572E2794D21002A00D14621002B03D107
:1039000001235B42049300E0049304AA1071002396
:1039100000930193029302200823084CA047002241
:10392000002806D0064A04E0064A02E0054A00E004
:10393000044A10B206B070BDEC0C0020691F0000F4
:10394000F2FF0000FAFF000030B587B0041E23DB51
:1039500005AB187043001B189B00114AD3180022B6
:103960009A71DB794E21002B00D14921002300936D
:1039700001930293022005AA04230A4DA847051EBD
:1039800000D0F725600000198000054BC018002109
:103990000C22054B984700E0FA2568B207B030BD0D
:1039A000EC0C0020691F00003D1D000010B584B024
:1039B000041C0D4B9847C3B2402B0ED8FF23184070
:1039C000431C00210091019102910220CA21221C76
:1039D000064CA047002803D001E0FA2000E0F720C1
:1039E00040B204B010BDC0464D1D0000691F00006C
:1039F000F0B5474680B480000D4BC6583368DB6A8B
:103A0000726B1340B26B1A4090460024094FE5597F
:103A100043462B4205D033195B68301C9847336806
:103A2000DD620434302CF2D104BC9046F0BDC046B7
:103A3000780D00202C8E000008B50020014B98471F
:103A400008BDC046F139000008B50120014B984778
:103A500008BDC046F139000008B50220014B984767
:103A600008BDC046F1390000F0B55F4656464D46E8
:103A70004446F0B489B0071C0D1C141C39600B6857
:103A8000980700D48DE0916A0391D26A0492236B67
:103A90000593606B06900026B1461F229046F1B256
:103AA000B30003AA9858002802D1281C8D4B9847D0
:103AB000411C29D00204120C9446030CDAB2494688
:103AC000180603D45109C901874BC9184046104054
:103AD0000B1840331B789A4680239B465346DB07DE
:103AE0000CD54008091830310B78DBB2D00702D56D
:103AF0001B099B4602E00F2213409B46DC4503D086
:103B000000233B601C20E5E00136042EC7D11320C2
:103B1000764B9847011C23780026012B11D1A06910
:103B200002AA734B9847031C1720002B00D0D1E04A
:103B30002B7BDBB202AA12781C209A4200D0C9E08B
:103B40000C26A26861680A43E3681A433243237C67
:103B5000617C002901D080210A43A17C002902D088
:103B6000802189020B43E17C002902D08021890059
:103B70000B43217D002902D0802189010B43296854
:103B8000022002438A4208D16A689A4205D123780A
:103B90007B71237CBB7100209CE000233B601C20D8
:103BA00098E00B680520D90700D593E0281C514BFD
:103BB0009847514B196A821C01269640321C0A43D1
:103BC0001A6207A92426A35D0B701430C0B2804688
:103BD0004A4B984740464A4B9847A05D0021494BC5
:103BE00098472378012B03D12A680C2313432B60B9
:103BF0003E6802AB80221A7000225A70012199702F
:103C0000DA70A26A0392E36A0493206B0590616BF9
:103C100006910025E9B2AB0003AA9858002802D10A
:103C2000301C304A9047431C06D069460872000C8D
:103C3000C0B202A9344A90470135042DEAD1237855
:103C40007B71237CBB71A37CFB71237D3B720022C3
:103C50006B46DA802378012B14D13868254B9847BE
:103C60001430C0B2214B9847011CA0696A46063245
:103C70001F4B9847031C1720002B2BD16B46063394
:103C80001B783373A26863681A43E0680243237C9D
:103C9000617C002903D11D498978880701D58021DD
:103CA0000A43A17C002902D0802189020B43E17CD8
:103CB000002902D0802189000B43217D002902D0F8
:103CC000802189010B4331680A43326072681343D3
:103CD0007360002009B03CBC90469946A246AB46B2
:103CE000F0BDC0460144000000440041BD4F00004B
:103CF000D54100008D45000000040040A14F0000A8
:103D0000154F0000B14300007D500000002000412D
:103D100010B544791523012C6CD1047A0023002CB2
:103D200068D1002A57D04B78002B44D00268137E0C
:103D3000DC070FD40B78D9090022002903D15A09D6
:103D4000D2012D4952181F210B4001219940916148
:103D500005234FE00B78DC090022002C03D15A091F
:103D6000D201254C12191F24234001249C40546188
:103D7000897803681A7ED40700D59962C279002336
:103D8000002A37D102680421137E0B42FCD0117E39
:103D900000234C072ED5538B590703D5518B042391
:103DA0000B4353838379012B02D1936A002321E0D3
:103DB000936A00231EE00B78D9090022002903D161
:103DC0005A09D2010C4C12191F210B4001219940B4
:103DD000516100230EE00B78D9090022002903D19C
:103DE0005A09D201044952181F210B400121994060
:103DF00091610023181C10BD00440041F0B55F46DE
:103E000056464D464446F0B4061C8B461720002A01
:103E10004FD044E03268137E2342FCD0431C9BB257
:103E20009A465946095C8946B379012B01D0504620
:103E300007E0023080B25B4653441B781B021943F3
:103E40008946137E234203D04B46DB05DB0D93628C
:103E5000F379002B14D03268137E2B42FCD0137EF2
:103E60002B420DD0538B2B4204D0518B4346194328
:103E70008BB25383B379012B01D1936A00E0936A2B
:103E8000013FBFB26745C5D173790020012B10D126
:103E9000316802220B7E1342FCD0002009E0013A77
:103EA00097B200200124042504218846044B9C4637
:103EB000B0E73CBC90469946A246AB46F0BDC04632
:103EC000FFFF000010B50020084B9847084CFA216E
:103ED0008900A047074B1860FA218900A047064BCC
:103EE00018600522054B1A6010BDC046894E0000BF
:103EF000C9590000080400200404002010E000E07C
:103F000030B5084B1C68084A00258021490206E0AC
:103F1000002C04D05460956013680B42FCD001382B
:103F2000F6D230BD0804002010E000E00C4B1B6806
:103F3000002B10D1EFF31083002B09D172B6BFF321
:103F40005F8F0022074B1A700122074B1A7002E0A4
:103F50000022054B1A70024B1A6801321A60704732
:103F6000B00B00200C040020B40B0020084B1A6892
:103F7000013A1A601B68002B09D1064B1B78002BF5
:103F800005D00122044B1A70BFF35F8F62B67047F1
:103F9000B00B0020B40B00200C040020F0B583B05F
:103FA00001AC012565700027A77025703E20211CFB
:103FB000064EB0478022D205054B9A612770657086
:103FC0000F20211CB04703B0F0BDC046B141000036
:103FD00080440041054B197802220A431A701A1CCA
:103FE00053785BB2002BFBDB7047C04600180040E3
:103FF00000B583B0124B996940220A439A6101A926
:1040000000230B7005200F4B984705200E4B984757
:104010000E4B197801220A431A701A1C53785BB2AE
:10402000002BFBDB0A4B191C4031002204C38B42DE
:10403000FCD11022074B1A60074B984703B000BD14
:1040400000040040A14F0000154F00000018004080
:10405000840D002000E100E0D53F0000F0B583B002
:10406000051C0C1C01A900234B70CB7063680B70FE
:10407000237A8B702078154B984700231F2D00D88A
:10408000134B072129408900E07AA27A002A01D047
:1040900008221043EA0892009A18966988400F2770
:1040A0008F40BE43311C01439161627A002A06D0E1
:1040B0005A690121A9400D1C15435D6104E05A694C
:1040C0000121A9408A435A6103B0F0BD7D50000030
:1040D000001800401723002A0FD18B00084A9A5875
:1040E000002A04D1191C064BC850002305E01D23EB
:1040F000121A501E824152421340181C7047C0468B
:10410000840D00201723002907D100231F2800D881
:10411000034B01228240DA600023181C7047C0461E
:10412000001800401723002907D100231F2800D8BA
:10413000034B012282409A600023181C7047C0463E
:104140000018004070B50022164B1A7000231F267D
:10415000154D144C1F2B10D919E0144900E0002113
:104160000A619B005B59002B00D0984723780133EC
:10417000DBB223700F2B14D8ECE7321C1A4001215C
:1041800091400A1C094909691142E6D1EEE7321C47
:104190001A40012191400A1C002109691142DED117
:1041A000E4E770BDC40D0020840D0020001800401D
:1041B00000B583B001AB80221A700A785A704A7831
:1041C0009A708A78DA70191C014B984703B000BDC9
:1041D0007D50000010B5031C4908402099420CD3C3
:1041E0000024C91A601C80B28B4201D8041CF8E775
:1041F0004020FF2C01D81480002010BD00000000DA
:10420000F0B55F4656464D464446F0B487B0061CAE
:104210000D1C049210AA1078321C424340248A429A
:1042200000D9B3E0002B4BD10021321C5E4CA047DB
:1042300083462E1C002700200021002200233F245B
:10424000A4460125A846029003916146203903D473
:1042500040468840814605E0202165464C1B40468B
:10426000E040814641466446A1408A46101C191C24
:1042700080185941021C0B1C5D464C46254202D059
:10428000424602430B1C9F420CD801D1964209D8EA
:10429000921BBB415046029D28434946039C214343
:1042A000029003916546013DAC46CED20298039937
:1042B0003C4B3B4A121A8B41120C1B041A4362E01E
:1042C0000022012B5FD14F0FB946CD00AB46002134
:1042D000321C0023344CA047061C0F1C0023012570
:1042E000029603979A465046C0B205900021884630
:1042F000002200233F24271C203F03D42E1CBE4055
:10430000019604E02020071B291CF94001912E1C76
:10431000A6400096101C191C80185941021C0B1C49
:104320005F463740BC46019E4F463E4067463E438F
:1043300002D02A1C02430B1C039898420BD802D1CE
:104340000299914207D8029E039F921BBB414746A8
:1043500000980743B846013CCDD2414652468B1ADD
:10436000DB08124CA34208D9059A0132D2B2059259
:104370000126B2445746082FB5D140240598082895
:1043800004D042031A43049C22800024201C07B05E
:104390003CBC90469946A246AB46F0BDC046C046DE
:1043A0000000000001000000295B0000FF1F00006A
:1043B00010B582B0041C0F4B1B78002B01D00029D4
:1043C0000DD001A90C7013200B4B984713200B4BF9
:1043D0009847084B5C7001221A70002007E0054BDB
:1043E0005A781D20141B621E94416442204002B082
:1043F00010BDC046B80B0020A14F0000154F0000B3
:10440000444B984233D006D8434B98420DD0434B8F
:1044100098421BD06FE0424B98424AD0414B9842A1
:1044200058D0414B984266D132E0012965D000292D
:1044300004D0022906D0032906D001E03B4867E0FA
:10444000002065E03A4863E03A4861E0012956D02F
:10445000002904D0022906D0032906D001E0032058
:1044600056E0002054E0344852E0344850E001293E
:1044700047D0002904D0022906D0032906D001E044
:104480002F4845E0002043E02E4841E02E483FE021
:10449000012938D0002904D0022906D0032906D0EA
:1044A00001E02A4834E0002032E0294830E0294881
:1044B0002EE0012929D0002904D0022906D00329A1
:1044C00006D001E0244823E0002021E023481FE03B
:1044D00023481DE001291AD0002904D0022906D062
:1044E000032906D001E01F4812E0002010E01E481A
:1044F0000EE01E480CE000200AE01D4808E01D48C0
:1045000006E01D4804E01D4802E01D4800E01D488B
:104510007047C0460010004200080042000C0042F4
:1045200000180042001C0042001400420300040076
:10453000030006000300070003001E0003001F0025
:104540000300080003000A0003000B000300100032
:10455000030012000300130003000C0003000E0010
:1045600003000F00030016000300180003001900E9
:10457000030005000300010003000900030011000F
:1045800003000D00030017007047C04670B586B0E9
:104590000C4A6B4670CA70C332CA32C3009E864250
:1045A00006D001239A0069465258824203D100E0A6
:1045B0000023D8B203E00133062BF3D1002006B06C
:1045C00070BDC0465C8E0000F0B50A4B1B78002B16
:1045D0000CD1094F094E0A4D0024DE515A191460BE
:1045E0000433182BF9D10122024B1A708000024BC0
:1045F000C150F0BDBC0B0020C00B0020894500005D
:10460000C80D002010B582B0041C68460549183159
:104610000622054B9847201C044B98476B461856BA
:1046200002B010BD5C8E00005D7200008D45000080
:1046300008B5024B1B680020984708BDC00B00203E
:1046400008B5024B5B680120984708BDC00B0020ED
:1046500008B5024B9B680220984708BDC00B00209C
:1046600008B5024BDB680320984708BDC00B00204B
:1046700008B5024B1B690420984708BDC00B0020F9
:1046800008B5024B5B690520984708BDC00B0020A8
:10469000F0B55F4656464D464446F0B491B0051C11
:1046A0000C1C161C2960081C9C4B9847021C236894
:1046B0000520D90700D529E123681C209F0700D5D4
:1046C00024E1974B186A911C01278F40391C014344
:1046D00019620FA92D27F35D0B701432D2B29046E8
:1046E000101C904B984740468F4B9847F05D002137
:1046F0008E4B9847F37A6B712423F35CAB712523BF
:10470000F35CEB71F37E2B72337F6B722968884602
:10471000081C824B9847143000226B46DA84328A98
:1047200002928023DB019A4221D08023DB019A424E
:1047300004D880239B019A4211D008E0C023DB01FA
:10474000029F9F420FD080231B029F4203D010275D
:10475000069700270EE00327069700270AE0102798
:104760000697012706E008270697012702E0082799
:104770000697002731680391F268914673690493A4
:10478000317E8A462623F35C9B467368002B13D048
:104790008022520593422ED12723F35C002B2ED189
:1047A000376AC0B2624B9847011C381C6A462632F1
:1047B000604B9847031C1FE02723F35C002B0AD0B3
:1047C000069A0092306AB16A6A4626323B1C5A4FFA
:1047D000B847031C10E0316A0791C0B2544B9847A8
:1047E000011C069A009207986A4626323B1C524FDB
:1047F000B847031C00E00023181E00D086E0737E3B
:10480000002B02D0B37E41468B732A68029FD36986
:10481000002BFCD102976B4626331B8842469381BE
:104820004B46039F3B43049F3B4371680B43029FEE
:104830001F43524613021F4359464B071F4327236A
:10484000F35C002B01D104231F43717E8902337F67
:104850005B021943F27AB37A13431943737F1B0245
:1048600019432423F35C5B0419432523F35C1B04E5
:1048700019433389FF2B07D0F27E002A02D0A022F1
:10488000D2041743194305E0F37E002B02D08023A6
:10489000DB041F432C23F35C002B03D1274B9B78B5
:1048A0009A0701D580231F432A68D369002BFCD1C6
:1048B000434659602A68D369002BFCD141460F60FA
:1048C0000EAB80221A7000225A70DA709A70326B26
:1048D0000A92736B0B93B76B0C97F66B0D960025D2
:1048E0000EAE174FE9B2AB000AAA9858002802D1C1
:1048F000201C144A9047431C04D03070000CC0B2F6
:10490000311CB8470135042DECD1002011B03CBC5E
:1049100090469946A246AB46F0BDC0468D45000084
:1049200000040040A14F0000154F0000B1430000FB
:10493000BD4F0000D54100000142000000200041B1
:104940007D5000000144000010B50368C2791C20AE
:10495000002A0CD01A7E0520D40708D5DA69002A6F
:10496000FCD1198502211A7E0A42FCD0002010BD1C
:1049700010B5036882791C20002A2FD01A7E0520EA
:1049800054072BD5DA69002AFCD15A8BD2B2900693
:1049900021D0940703D502225A831A201EE0500723
:1049A00003D504225A831E2018E0D40703D5012220
:1049B0005A83132012E0D00605D5598B10220A43E2
:1049C0005A8342200AE0940605D5598B20220A43D7
:1049D0005A83412002E01B8D0B80002010BDC04691
:1049E00008B5082834D880001B4B1B589F468020F0
:1049F000000230E0194B18692DE0194B186A800548
:104A0000800F184BC340181C25E0144B586922E056
:104A1000124B1B68022018401DD011491022CB6890
:104A20001A42FCD00D4B1B685A0713D500200E4BC1
:104A300098470A4B9B681B041B0C58430BE0502300
:104A4000074AD35C00205A0705D5044BD86802E01A
:104A5000002000E0054808BD7C8E0000D80B002037
:104A60000008004000127A00BD4F0000006CDC021C
:104A700070B50C4B1C6A0178857840780122104093
:104A800080014026B44304432A40D001802294434D
:104A9000221C0243032001400902034802400A434A
:104AA0001A6270BD00080040FFFCFFFFF0B54F46E2
:104AB0004646C0B4194A946941788C46057806790F
:104AC000C7784379994680780123184080000421F3
:104AD0008C43044360461840C00008218C430443C3
:104AE000181C384080014027BC430443181C304048
:104AF000C0018026B4430443072028400002084D2B
:104B00002C40044349460B4019030648231C03402C
:104B10000B4393610CBC90469946F0BD00080040E1
:104B2000FFF8FFFFFFEFFFFF10B5027A9206120CAD
:104B300043899B059B0D1A43154B5A608188428817
:104B40001143C479827922430A434178C9010A4357
:104B50001A600378042B0FD1027B9206038A1A4352
:104B6000C3891B040B490B401A43094B9A6019680F
:104B700004220A431A6009E0202B07D1028A044B61
:104B80009A6019688422D2000A431A6010BDC04698
:104B9000D80B00200000FF03082843D88000224BD8
:104BA0001B589F4600203EE0204B196A02220A4310
:104BB0001A62002037E01D4B996902220A439A616C
:104BC000002030E0194B198A02220A431A82002081
:104BD00029E0164B998A02220A439A82002022E099
:104BE000134B196802220A431A601A68114B1A40C3
:104BF0000E4B9A84191C1022CB681A42FCD00C4A26
:104C000091680A4BD96251689962126892B29A848B
:104C1000002008E0054A4423D05C02210143D1541E
:104C2000002000E017207047A08E00000008004020
:104C3000D80B00207FFF0000F0B54F464646C0B4B9
:104C40008DB03C4BC222D2009A603B4A51681E2074
:104C50008143042739435160384A1168C904490E19
:104C600009049869364A02400A439A610AA8012554
:104C7000457085700024C47005710722914602704A
:104C80004471304B984704202F4A9046904705A81E
:104C90000026448084808671C6714B4603723F2390
:104CA000438107704670B722D20002824A460273DF
:104CB000C381264B984704A8857006704570244B25
:104CC00098470620C047234B984701AC0295667071
:104CD0002672667227700120211C1F4B9847012005
:104CE0001E4B984725700020211C1D4B9847002023
:104CF0001C4B98470720C0470E49D022CB68134071
:104D0000D02BFBD1184A002313725372937201A95E
:104D100001224A604B700B724B7207230B7000200C
:104D20000D4B984700200D4B98470DB00CBC90469A
:104D30009946F0BD0008004000400041246080001A
:104D4000FFFF80FFAD4A0000994B0000294B000097
:104D5000714A00006D4D0000914D0000454E00006D
:104D6000A14F0000154F000000040040064B996958
:104D700008220A439A610122044B1A70191C0B780D
:104D80001342FCD17047C04600040040000C0040B4
:104D9000F8B5061C071C0D782D0205434B78002B37
:104DA00002D08023DB021D434B7A002B02D08023EC
:104DB0001B031D434C68012C17D9631E1C420FD1E5
:104DC000022C06D90223002201325B009C42FBD850
:104DD00000E000221702374380235B031D4304E0F9
:104DE0002702374380239B021D430B7A002B02D0FE
:104DF00080239B031D430F4A53785BB2002BFBDBE0
:104E00000D4B98470D4B1E700A4A53785BB2002B2E
:104E1000FBDB084B9F601A1C53785BB2002BFBDB5B
:104E2000044B5968802252020A4015435D60044BCE
:104E30009847F8BD000C00402D3F0000080C0040D2
:104E40006D3F000010B5041C0B4A53785BB2002B79
:104E5000FBDB0A4B98470A4B1C70074A53785BB23E
:104E6000002BFBDB044B5968802252020A435A6034
:104E7000044B984710BDC046000C00402D3F000079
:104E8000040C00406D3F000070B5041C1A4A5378B2
:104E90005BB2002BFBDB194B9847194B1C70164A71
:104EA00053785BB2002BFBDB134E7068C004C00E5E
:104EB000144B9847051C124B1C707668F602F60FCF
:104EC000114B1C700C4A53785BB2002BFBDB0A4B76
:104ED0009C68240AA4B20D4B9847002E07D1012CE0
:104EE00007D9281C211C0A4B9847051C01E00134F6
:104EF000E540281C70BDC046000C00402D3F00005E
:104F0000040C0040E1490000080C00406D3F000027
:104F1000C959000010B5041C064B9847064B1C707D
:104F2000064B59888022D2010A435A80044B984785
:104F300010BDC0462D3F0000020C0040000C004098
:104F40006D3F000010B5041C0F4B98470F4B1C70B1
:104F50000F4B58880005000F59880E4A0A405A80A6
:104F600059880D4A0A405A80191C8022D2014B8868
:104F70001342FCD1064B01025888064A02400A43FC
:104F80005A80064B984710BD2D3F0000020C004090
:104F9000000C0040FFF0FFFFFFBFFFFF6D3F000070
:104FA00010B50C7824020443024B9847A4B2024B7C
:104FB0005C8010BD454F0000000C004010B5041C83
:104FC000064B9847064B1C70064B5C882405240F43
:104FD000054B9847201C054B984710BD2D3F0000FE
:104FE000020C0040000C00406D3F0000894E0000A4
:104FF00030B5D378002B1ED11378802B04D01B063C
:1050000080246402234300E0002354780225AC434B
:105010000AD19478002C03D18024A402234302E017
:10502000C024E402234341605478013C012C04D89D
:10503000114C234001E0416000230D042D0CA024FD
:10504000E4052C431C4384620D0CD02424062C431D
:105050001C438462D478002C0CD15C0305D5937872
:10506000012B01D1816100E041615378013B012BAB
:1050700000D8816030BDC046FFFFFBFF08B5031CB0
:105080000A1CC1090020002903D15809C0010449A4
:1050900040181F210B4001219940024B984708BD41
:1050A00000440041F14F00007047C04608B5044B72
:1050B0009847044B9847044B9847044B984708BDC2
:1050C000394C00009D3F0000A9500000F13F000056
:1050D000FEE7C04610B5194B194A9A4203D0194B46
:1050E000164A9A4204D3184B184A9A4210D31BE02E
:1050F000174B14480330C01A800801308000002389
:105100000E490F4AD458CC5004338342FAD1EAE70F
:105110000E4B1A1D0C490331891A8908890052184F
:10512000002102C39342FCD10A4B7F210A4A8A43E1
:105130009A600A4B98470A4B9847FEE70000002008
:10514000409500007C040020F80D00207C04002025
:105150000400002000ED00E00000000011720000DB
:1051600051540000F0B5474680B40C1C904600280E
:105170000CD1002A0DDD8F18094E0A4D3068211C14
:105180002B6898470134BC42F8D104E0012040422A
:1051900002E0002000E0404604BC9046F0BDC0465E
:1051A000E80D0020E00D0020F0B5474680B40E1C4D
:1051B000151C0138022810D8002A11D000240D4BEC
:1051C00098460D4F43461868315D3B689847002864
:1051D00008DB0134A542F5D107E00120404205E09B
:1051E000002003E00120404200E0201C04BC904667
:1051F000F0BDC046E80D0020E40D0020064B1B6802
:10520000002B02D1054A044B1A60034A1368181890
:105210001060181C7047C046F00B0020F82D0020CD
:10522000012040427047C04680239B014B60002014
:105230007047C046012070470020704708B5011C28
:105240000148024B9847FEE7C48E000081720000BF
:105250007047C046012040427047C04670B582B0DA
:10526000051C0C1CFF23191C2140220A1A40200C8B
:105270000340200E00900648064EB0470648291C01
:10528000B047281C211C054B984702B070BDC04692
:105290001C8F000081720000388F0000CD120000CA
:1052A00008B5014B984708BD19130000F0B54746F3
:1052B00080B482B0041C0D1C4048211C404B984710
:1052C0002C2C66D002D8072C34D072E02E2C02D0C1
:1052D000382C1FD06DE02B78012B05D139483A4B83
:1052E00098473A4B984764E0002B62D13848364BD8
:1052F00098470322374B1A70374C201C374B98477E
:10530000C1B2374B1A78FF230093201C354B364C23
:10531000A0474EE029786A78AB78E8780090334867
:10532000274CA0472B4B1B78032B42D10422294B3F
:105330001A703EE02E48244B98476323EB5C002B09
:1053400023D1281C254EB047021C234F381C291C92
:10535000284B984698476223EC5C214B1C60213512
:10536000281CB047021C1F4E301C291CC047224875
:10537000391C321C231C124CA047164B1B78012BE6
:1053800017D10222134B1A7013E01C480E4B98479A
:105390000FE02B78002B03D119480B4B984708E0FE
:1053A000012B03D11748084B984702E01648064BDB
:1053B000984702B004BC9046F0BDC0464C8F000038
:1053C000817200005C8F000079730000E926000004
:1053D000988F0000340C0020380C002079750000F4
:1053E00010040020F40B0020D5250000D88F000009
:1053F000149000005D7200003C900000549000008A
:1054000070900000A8900000DC90000070B582B0A1
:10541000051C0E1C00226B46DA80064C281C6946CF
:105420000631A0470028F9D16B4606331B8833703C
:1054300002B070BD7149000070B5061C0D1C034C14
:10544000301C291CA0470028FAD170BD4949000032
:10545000F0B55F4656464D464446F0B4EBB0D44BEB
:10546000984724AB8022D205249200225A60FF2163
:10547000198100219A72DA720120242418552524FA
:10548000185526201A5427201A549A622C201A5490
:105490002D201A545A611A82DA76197619775976BC
:1054A00013229A76597780225203DA60C14A1A632E
:1054B000C14A5A63012252429A63DA63E1225202DC
:1054C0001A62BE4CBE4B1C60BE4ABF4B1A60BF4A3C
:1054D000BF4B1A60201CBF4924AABF4B9847BF4E40
:1054E000336898680021BE4DA8473368586800218A
:1054F000A8472368DA69002AFCD1196802220A4306
:105500001A60B848B84B9847B84B9847B84B98477B
:1055100000240F208046B74DB74FB02340462040AF
:105520001843A8471020A8470020A847802600203D
:10553000B847013E002EFAD10134E4B2042CECD17C
:1055400024AC012666700025A57026700C20211C55
:10555000AA4FB84780225201A94B9A612570667004
:105560001C2024A9B8472570257125762562E561A0
:10557000C0235B01E38125746574A574E5742A2357
:10558000E5546575A5752423E5540023E584258538
:10559000E3752B22A3542C22A354F0231B05A360F4
:1055A000C0239B006380022363701223237326753C
:1055B000944C201C944924AA944B984723685A7E03
:1055C00052B2002AFBDB8F4A1279002A04D1904A9A
:1055D000106C042101431164197802220A431A70E5
:1055E0008C4B984700236593669367936893699300
:1055F000894B649364A8894B9847002803D0884856
:10560000794B9847FEE78748774B98470222864BAD
:105610001A70864988460020C047834B1B78022BAE
:1056200034D1834B984783488349844B9847844CB3
:10563000844A231CA1CAA1C322CA22C3824E0223C8
:105640003360824D824B2A1C83CB83C21B6813605C
:105650008048211C02222B1C7F4FB847201C7F4B07
:105660009847C1B23278FF230093201C2B1C7C4C3E
:10567000A04700207B4B98477B4B18607B497C4AB6
:105680007C4B98470322684B1A70C4E7042BC2D1A5
:10569000754B1A685223D35C002BBCD124A800217F
:1056A00080225200744B9847C8208000734B984763
:1056B0006D4B1B6851229A5C002A05D16A4A9146BB
:1056C0006F4F704B9A460AE050229B5A802252003C
:1056D0009342F3D06C4A934200D00BE1EEE74C4684
:1056E0002068B847061E1ED05046311C5A4B9847BA
:1056F000B220404CA0471020A0470020A04763489C
:10570000634B9847B320A0471020A0470020A04734
:105710008024394D0020A847013C002CFAD1301CD0
:105720005B4B9847DBE75B482F4B98475A4B9847B2
:10573000061C0F1C1D4B1C4A584CA047029003919D
:10574000304B1868437E5BB2002BFBDB027B0223ED
:1057500013430373012104250224037EDBB20A1CD8
:105760001A401D4200D022431C4200D02A4311425D
:10577000F3D0437E5BB2002BFBDB418B89B201236C
:105780000376027ED2B21340550701D5022423438B
:10579000940701D5042213435D0700D4B3E002232C
:1057A0000376B0E0C046C046000000000000404064
:1057B000AD50000002001600020017007C0C002013
:1057C000E80D002039540000E40D00200D540000C5
:1057D000E00D0020001400429146000074040020F7
:1057E0008D7300001091000079730000B103000078
:1057F0005D010000110100000D030000B141000037
:1058000000440041EC0D00200040004291050000E2
:1058100000080040751A0000AD5200007525000018
:105820007091000094910000340C0020C925000004
:1058300029370000A15200005D52000061370000CE
:10584000380C0020C091000010040020F40B002050
:10585000D8910000EC910000817200007975000081
:10586000D525000099120000780C0020DC92000081
:10587000E08E00009D1600006F720000311A0000DB
:10588000A51900000C9200000202000030920000F6
:105890005903000040920000C1040000B15B000009
:1058A0000020A847013C002CFAD104A8324B9847AD
:1058B00004A800218022314B984704A830495A4659
:1058C000304B9847B120304CA0471020A047002013
:1058D000A04780242D4D0020A847013C002CFAD180
:1058E00004A8254B98472A4B18682A4924AA2A4B12
:1058F000984790E629482A4B9847254B186829492C
:10590000294B984787E68B005918490A28235B1AC8
:10591000DBB29B462548814602980399C8478246D8
:1059200002980399134B124A214CA047C84764219F
:10593000204B98470B1C24A81F495246114CA047E6
:1059400004A8002180220D4B9847301C391C1B4BAA
:105950009847C2B2203204A81949A047B0200A4C87
:10596000A0471020A0470020A0478024074D97E7BC
:105970000000000000005940590300006F72000051
:105980005C92000011750000110100000D03000081
:10599000780C0020CC920000F51600006C920000FC
:1059A000797300000C8F0000611800007D6D00000D
:1059B000F5610000115B00008C920000715B00003B
:1059C000B4920000C046C046002934D00123002212
:1059D00010B488422CD301242407A14204D281426E
:1059E00002D209011B01F8E7E400A14204D281427E
:1059F00002D249005B00F8E7884201D3401A1A43FB
:105A00004C08A04202D3001B5C0822438C08A04231
:105A100002D3001B9C082243CC08A04202D3001BE7
:105A2000DC082243002803D01B0901D00909E3E761
:105A3000101C10BC7047002801D00020C04307B4E0
:105A4000024802A14018029003BDC046D9000000E0
:105A50000029F0D003B5FFF7B9FF0EBC4243891A05
:105A60001847C046002941D010B4041C4C40A4463D
:105A700001230022002900D54942002800D54042D8
:105A800088422CD301242407A14204D2814202D2AD
:105A900009011B01F8E7E400A14204D2814202D2CD
:105AA00049005B00F8E7884201D3401A1A434C08CA
:105AB000A04202D3001B5C0822438C08A04202D300
:105AC000001B9C082243CC08A04202D3001BDC0828
:105AD0002243002803D01B0901D00909E3E7101C69
